{
  "contractName": "Manager",
  "abi": [
    {
      "constant": false,
      "inputs": [],
      "name": "renounceOwnership",
      "outputs": [],
      "payable": false,
      "stateMutability": "nonpayable",
      "type": "function"
    },
    {
      "constant": true,
      "inputs": [],
      "name": "owner",
      "outputs": [
        {
          "name": "",
          "type": "address"
        }
      ],
      "payable": false,
      "stateMutability": "view",
      "type": "function"
    },
    {
      "constant": true,
      "inputs": [],
      "name": "isOwner",
      "outputs": [
        {
          "name": "",
          "type": "bool"
        }
      ],
      "payable": false,
      "stateMutability": "view",
      "type": "function"
    },
    {
      "constant": true,
      "inputs": [],
      "name": "creationTime",
      "outputs": [
        {
          "name": "",
          "type": "uint256"
        }
      ],
      "payable": false,
      "stateMutability": "view",
      "type": "function"
    },
    {
      "constant": false,
      "inputs": [
        {
          "name": "newOwner",
          "type": "address"
        }
      ],
      "name": "transferOwnership",
      "outputs": [],
      "payable": false,
      "stateMutability": "nonpayable",
      "type": "function"
    },
    {
      "inputs": [
        {
          "name": "_token",
          "type": "address"
        }
      ],
      "payable": false,
      "stateMutability": "nonpayable",
      "type": "constructor"
    },
    {
      "anonymous": false,
      "inputs": [
        {
          "indexed": true,
          "name": "loader",
          "type": "address"
        }
      ],
      "name": "LoaderAdded",
      "type": "event"
    },
    {
      "anonymous": false,
      "inputs": [
        {
          "indexed": true,
          "name": "unLoader",
          "type": "address"
        }
      ],
      "name": "UnLoaderAdded",
      "type": "event"
    },
    {
      "anonymous": false,
      "inputs": [
        {
          "indexed": true,
          "name": "loader",
          "type": "address"
        },
        {
          "indexed": false,
          "name": "hash",
          "type": "bytes32"
        },
        {
          "indexed": false,
          "name": "value",
          "type": "uint256"
        }
      ],
      "name": "AssetLoaded",
      "type": "event"
    },
    {
      "anonymous": false,
      "inputs": [
        {
          "indexed": true,
          "name": "unloader",
          "type": "address"
        },
        {
          "indexed": false,
          "name": "hash",
          "type": "bytes32"
        },
        {
          "indexed": false,
          "name": "value",
          "type": "uint256"
        }
      ],
      "name": "AssetUnLoaded",
      "type": "event"
    },
    {
      "anonymous": false,
      "inputs": [
        {
          "indexed": true,
          "name": "previousOwner",
          "type": "address"
        },
        {
          "indexed": true,
          "name": "newOwner",
          "type": "address"
        }
      ],
      "name": "OwnershipTransferred",
      "type": "event"
    },
    {
      "constant": false,
      "inputs": [
        {
          "name": "_loader",
          "type": "address"
        }
      ],
      "name": "addLoader",
      "outputs": [],
      "payable": false,
      "stateMutability": "nonpayable",
      "type": "function"
    },
    {
      "constant": false,
      "inputs": [
        {
          "name": "_unLoader",
          "type": "address"
        }
      ],
      "name": "addUnLoader",
      "outputs": [],
      "payable": false,
      "stateMutability": "nonpayable",
      "type": "function"
    },
    {
      "constant": false,
      "inputs": [
        {
          "name": "_hash",
          "type": "bytes32"
        },
        {
          "name": "_amount",
          "type": "uint256"
        }
      ],
      "name": "load",
      "outputs": [],
      "payable": false,
      "stateMutability": "nonpayable",
      "type": "function"
    },
    {
      "constant": false,
      "inputs": [
        {
          "name": "_id",
          "type": "string"
        },
        {
          "name": "_code",
          "type": "string"
        }
      ],
      "name": "unLoad",
      "outputs": [],
      "payable": false,
      "stateMutability": "nonpayable",
      "type": "function"
    },
    {
      "constant": true,
      "inputs": [
        {
          "name": "_account",
          "type": "address"
        }
      ],
      "name": "checkIsLoader",
      "outputs": [
        {
          "name": "",
          "type": "bool"
        }
      ],
      "payable": false,
      "stateMutability": "view",
      "type": "function"
    },
    {
      "constant": true,
      "inputs": [
        {
          "name": "_account",
          "type": "address"
        }
      ],
      "name": "checkIsUnLoader",
      "outputs": [
        {
          "name": "",
          "type": "bool"
        }
      ],
      "payable": false,
      "stateMutability": "view",
      "type": "function"
    },
    {
      "constant": true,
      "inputs": [],
      "name": "getAvailableAssets",
      "outputs": [
        {
          "name": "",
          "type": "uint256"
        }
      ],
      "payable": false,
      "stateMutability": "view",
      "type": "function"
    }
  ],
  "bytecode": "0x6080604052600060085534801561001557600080fd5b506040516020806111b88339810180604052602081101561003557600080fd5b8101908080519060200190929190505050336000806101000a81548173ffffffffffffffffffffffffffffffffffffffff021916908373ffffffffffffffffffffffffffffffffffffffff1602179055506000809054906101000a900473ffffffffffffffffffffffffffffffffffffffff1673ffffffffffffffffffffffffffffffffffffffff16600073ffffffffffffffffffffffffffffffffffffffff167f8be0079c531659141344cd1fd0a4f28419497f9722a3daafe3b4186f6b6457e060405160405180910390a380600160006101000a81548173ffffffffffffffffffffffffffffffffffffffff021916908373ffffffffffffffffffffffffffffffffffffffff16021790555050611065806101536000396000f3fe608060405234801561001057600080fd5b50600436106100d1576000357c0100000000000000000000000000000000000000000000000000000000900480638f32d59b1161008e5780638f32d59b1461033a578063d8270dce1461035c578063f2fde38b1461037a578063f6df4365146103be578063f86a11b31461041a578063fa67bd8714610452576100d1565b8063072f043f146100d65780632e3a887014610228578063320c8fb814610284578063715018a6146102c857806389332f7f146102d25780638da5cb5b146102f0575b600080fd5b610226600480360360408110156100ec57600080fd5b810190808035906020019064010000000081111561010957600080fd5b82018360208201111561011b57600080fd5b8035906020019184600183028401116401000000008311171561013d57600080fd5b91908080601f016020809104026020016040519081016040528093929190818152602001838380828437600081840152601f19601f820116905080830192505050505050509192919290803590602001906401000000008111156101a057600080fd5b8201836020820111156101b257600080fd5b803590602001918460018302840111640100000000831117156101d457600080fd5b91908080601f016020809104026020016040519081016040528093929190818152602001838380828437600081840152601f19601f820116905080830192505050505050509192919290505050610496565b005b61026a6004803603602081101561023e57600080fd5b81019080803573ffffffffffffffffffffffffffffffffffffffff169060200190929190505050610814565b604051808215151515815260200191505060405180910390f35b6102c66004803603602081101561029a57600080fd5b81019080803573ffffffffffffffffffffffffffffffffffffffff16906020019092919050505061086a565b005b6102d061091b565b005b6102da6109ed565b6040518082815260200191505060405180910390f35b6102f8610afe565b604051808273ffffffffffffffffffffffffffffffffffffffff1673ffffffffffffffffffffffffffffffffffffffff16815260200191505060405180910390f35b610342610b27565b604051808215151515815260200191505060405180910390f35b610364610b7e565b6040518082815260200191505060405180910390f35b6103bc6004803603602081101561039057600080fd5b81019080803573ffffffffffffffffffffffffffffffffffffffff169060200190929190505050610b84565b005b610400600480360360208110156103d457600080fd5b81019080803573ffffffffffffffffffffffffffffffffffffffff169060200190929190505050610ba3565b604051808215151515815260200191505060405180910390f35b6104506004803603604081101561043057600080fd5b810190808035906020019092919080359060200190929190505050610bf9565b005b6104946004803603602081101561046857600080fd5b81019080803573ffffffffffffffffffffffffffffffffffffffff169060200190929190505050610df7565b005b61049f33610814565b15156104f6576040517f08c379a000000000000000000000000000000000000000000000000000000000815260040180806020018281038252602b81526020018061100f602b913960400191505060405180910390fd5b60008282604051602001808060200180602001838103835285818151815260200191508051906020019080838360005b83811015610541578082015181840152602081019050610526565b50505050905090810190601f16801561056e5780820380516001836020036101000a031916815260200191505b50838103825284818151815260200191508051906020019080838360005b838110156105a757808201518184015260208101905061058c565b50505050905090810190601f1680156105d45780820380516001836020036101000a031916815260200191505b50945050505050604051602081830303815290604052805190602001209050600060076000838152602001908152602001600020549050600081111515610683576040517f08c379a000000000000000000000000000000000000000000000000000000000815260040180806020018281038252600d8152602001807f4361726420697320656d7074790000000000000000000000000000000000000081525060200191505060405180910390fd5b600060076000848152602001908152602001600020819055506106b181600854610ea890919063ffffffff16565b600881905550600160009054906101000a900473ffffffffffffffffffffffffffffffffffffffff1673ffffffffffffffffffffffffffffffffffffffff1663a9059cbb33836040518363ffffffff167c0100000000000000000000000000000000000000000000000000000000028152600401808373ffffffffffffffffffffffffffffffffffffffff1673ffffffffffffffffffffffffffffffffffffffff16815260200182815260200192505050602060405180830381600087803b15801561077c57600080fd5b505af1158015610790573d6000803e3d6000fd5b505050506040513d60208110156107a657600080fd5b8101908080519060200190929190505050503373ffffffffffffffffffffffffffffffffffffffff167f0b16da0b959928d6185902c98ee23ee1168bd36d311e5cc03e7786684a7bf02b8383604051808381526020018281526020019250505060405180910390a250505050565b6000600660008373ffffffffffffffffffffffffffffffffffffffff1673ffffffffffffffffffffffffffffffffffffffff16815260200190815260200160002060009054906101000a900460ff169050919050565b610872610b27565b151561087d57600080fd5b6001600660008373ffffffffffffffffffffffffffffffffffffffff1673ffffffffffffffffffffffffffffffffffffffff16815260200190815260200160002060006101000a81548160ff0219169083151502179055508073ffffffffffffffffffffffffffffffffffffffff167f29b58d95b3c523b98cc285a39b4a149630608b33573a8a5d08f3a6788ae32acd60405160405180910390a250565b610923610b27565b151561092e57600080fd5b600073ffffffffffffffffffffffffffffffffffffffff166000809054906101000a900473ffffffffffffffffffffffffffffffffffffffff1673ffffffffffffffffffffffffffffffffffffffff167f8be0079c531659141344cd1fd0a4f28419497f9722a3daafe3b4186f6b6457e060405160405180910390a360008060006101000a81548173ffffffffffffffffffffffffffffffffffffffff021916908373ffffffffffffffffffffffffffffffffffffffff160217905550565b6000610af9600854600160009054906101000a900473ffffffffffffffffffffffffffffffffffffffff1673ffffffffffffffffffffffffffffffffffffffff166370a08231306040518263ffffffff167c0100000000000000000000000000000000000000000000000000000000028152600401808273ffffffffffffffffffffffffffffffffffffffff1673ffffffffffffffffffffffffffffffffffffffff16815260200191505060206040518083038186803b158015610ab057600080fd5b505afa158015610ac4573d6000803e3d6000fd5b505050506040513d6020811015610ada57600080fd5b8101908080519060200190929190505050610ea890919063ffffffff16565b905090565b60008060009054906101000a900473ffffffffffffffffffffffffffffffffffffffff16905090565b60008060009054906101000a900473ffffffffffffffffffffffffffffffffffffffff1673ffffffffffffffffffffffffffffffffffffffff163373ffffffffffffffffffffffffffffffffffffffff1614905090565b60045481565b610b8c610b27565b1515610b9757600080fd5b610ba081610eca565b50565b6000600560008373ffffffffffffffffffffffffffffffffffffffff1673ffffffffffffffffffffffffffffffffffffffff16815260200190815260200160002060009054906101000a900460ff169050919050565b60011515610c0633610ba3565b1515141515610c60576040517f08c379a0000000000000000000000000000000000000000000000000000000008152600401808060200182810382526029815260200180610fe66029913960400191505060405180910390fd5b60006007600084815260200190815260200160002054141515610ceb576040517f08c379a00000000000000000000000000000000000000000000000000000000081526004018080602001828103825260148152602001807f4361726420697320616c72656164792066756c6c00000000000000000000000081525060200191505060405180910390fd5b80610cf46109ed565b10151515610d6a576040517f08c379a00000000000000000000000000000000000000000000000000000000081526004018080602001828103825260168152602001807f4e6f7420656e6f75676820617373657473206c6566740000000000000000000081525060200191505060405180910390fd5b806007600084815260200190815260200160002081905550610d9781600854610fc490919063ffffffff16565b6008819055503373ffffffffffffffffffffffffffffffffffffffff167f850687cc78bfa72e2385335979baba82a267796316a2e6c2fbcf976b11c620c48383604051808381526020018281526020019250505060405180910390a25050565b610dff610b27565b1515610e0a57600080fd5b6001600560008373ffffffffffffffffffffffffffffffffffffffff1673ffffffffffffffffffffffffffffffffffffffff16815260200190815260200160002060006101000a81548160ff0219169083151502179055508073ffffffffffffffffffffffffffffffffffffffff167fe5a4874b18979c5c116ed583b16531aa9c993d440a2898f7e47f90cc2f63511f60405160405180910390a250565b6000828211151515610eb957600080fd5b600082840390508091505092915050565b600073ffffffffffffffffffffffffffffffffffffffff168173ffffffffffffffffffffffffffffffffffffffff1614151515610f0657600080fd5b8073ffffffffffffffffffffffffffffffffffffffff166000809054906101000a900473ffffffffffffffffffffffffffffffffffffffff1673ffffffffffffffffffffffffffffffffffffffff167f8be0079c531659141344cd1fd0a4f28419497f9722a3daafe3b4186f6b6457e060405160405180910390a3806000806101000a81548173ffffffffffffffffffffffffffffffffffffffff021916908373ffffffffffffffffffffffffffffffffffffffff16021790555050565b6000808284019050838110151515610fdb57600080fd5b809150509291505056fe43616e206f6e6c792062652063616c6c656420627920612072656769737465726564206c6f6164657243616e206f6e6c792062652063616c6c65642062792061207265676973746572656420756e4c6f61646572a165627a7a723058201c371c3d1c0f34083a9974186d5da3d0411133b0c93e25fd74a4e957cbd9e2100029",
  "source": "pragma solidity >=0.5.0 <0.6.0;\n\nimport 'openzeppelin-solidity/contracts/ownership/Ownable.sol';\nimport 'openzeppelin-solidity/contracts/math/SafeMath.sol';\n\nimport './Token.sol';\n\ncontract Manager is Ownable {\n    using SafeMath for uint;\n\n    Token token;\n    uint instantCashAmount;\n    uint savingsBonusAmount;\n    uint public creationTime;\n\n    mapping(address => bool) isLoader;\n    mapping(address => bool) isUnLoader;\n    mapping(bytes32 => uint) holdings;\n\n    uint assetsHold = 0;\n\n    event LoaderAdded(address indexed loader);\n    event UnLoaderAdded(address indexed unLoader);\n\n    event AssetLoaded(address indexed loader, bytes32 hash, uint value);\n    event AssetUnLoaded(address indexed unloader, bytes32 hash, uint value);\n\n    modifier onlyLoader() {\n        require(checkIsLoader(msg.sender) == true, 'Can only be called by a registered loader');\n        _;\n    }\n\n    modifier onlyUnLoader() {\n        require(checkIsUnLoader(msg.sender), 'Can only be called by a registered unLoader');\n        _;\n    }\n\n\n    constructor(Token _token) public {\n        token = _token;\n    }\n\n    function addLoader(address _loader) public onlyOwner {\n        isLoader[_loader] = true;\n        emit LoaderAdded(_loader);\n    }\n\n    function addUnLoader(address _unLoader) public onlyOwner {\n        isUnLoader[_unLoader] = true;\n        emit UnLoaderAdded(_unLoader);\n    }\n\n    function load(bytes32 _hash, uint _amount) public onlyLoader {\n        require(holdings[_hash] == 0, \"Card is already full\");\n        require(getAvailableAssets() >= _amount, \"Not enough assets left\");\n\n        holdings[_hash] = _amount;\n        assetsHold = assetsHold.add(_amount);\n        emit AssetLoaded(msg.sender, _hash, _amount);\n    }\n\n    function unLoad(string memory _id, string memory _code) public onlyUnLoader {\n\n        bytes32 hash = keccak256(abi.encode(_id, _code));\n        uint amount = holdings[hash];\n        require(amount > 0, \"Card is empty\");\n\n        holdings[hash] = 0;\n        assetsHold = assetsHold.sub(amount);\n\n        token.transfer(msg.sender, amount);\n        emit AssetUnLoaded(msg.sender, hash, amount);\n    }\n\n    function checkIsLoader(address _account) public view returns(bool) {\n        return isLoader[_account];\n    }\n\n    function checkIsUnLoader(address _account) public view returns (bool) {\n        return isUnLoader[_account];\n    }\n\n    function getAvailableAssets() public view returns (uint) {\n        return token.balanceOf(address(this)).sub(assetsHold);\n    }\n\n}\n",
  "sourcePath": "/Users/alex/alice/tappy/core/contracts/Manager.sol",
  "compiler": {
    "name": "solc",
    "version": "0.5.2+commit.1df8f40c.Emscripten.clang"
  },
  "schemaVersion": "3.0.0-beta.2",
  "updatedAt": "2019-05-18T15:00:53.628Z",
  "devdoc": {
    "methods": {
      "isOwner()": {
        "return": "true if `msg.sender` is the owner of the contract."
      },
      "owner()": {
        "return": "the address of the owner."
      },
      "renounceOwnership()": {
        "details": "Allows the current owner to relinquish control of the contract. It will not be possible to call the functions with the `onlyOwner` modifier anymore."
      },
      "transferOwnership(address)": {
        "details": "Allows the current owner to transfer control of the contract to a newOwner.",
        "params": {
          "newOwner": "The address to transfer ownership to."
        }
      }
    }
  },
  "userdoc": {
    "methods": {
      "renounceOwnership()": {
        "notice": "Renouncing ownership will leave the contract without an owner, thereby removing any functionality that is only available to the owner."
      }
    }
  }
}